:020000040800F2
:10000000E0E4012089250008090400080B04000829
:100010000D0400080F04000811040008000000008F
:100020000000000000000000000000009B25000808
:100030001304000800000000F37E0108A125000859
:10004000A3250008A3250008A3250008A325000870
:10005000A3250008A3250008A3250008A325000860
:10006000A3250008A3250008A3250008A325000850
:10007000A3250008A3250008A3250008A325000840
:10008000A3250008A3250008A3250008A325000830
:10009000A3250008A3250008A3250008A325000820
:1000A000A3250008A3250008A3250008A325000810
:1000B000A3250008FD0500084F560008A3250008E9
:1000C000A3250008A3250008A3250008A3250008F0
:1000D000A3250008DD4E0008A3250008A32500087D
:1000E000A3250008A3250008A3250008A3250008D0
:1000F000A3250008A3250008A3250008A3250008C0
:10010000A3250008BD200008A3250008A32500089A
:10011000A3250008A3250008A3250008A32500089F
:10012000A3250008A3250008A3250008A32500088F
:10013000A3250008CF070008A3250008A325000871
:10014000A3250008A3250008A3250008A32500086F
:10015000A3250008A3250008A325000805500008D2
:10016000A3250008A3250008A3250008A32500084F
:10017000A3250008A3250008A3250008A32500083F
:10018000A3250008A325000800F002F800F076F887
:100190000AA090E8000C82448344AAF10107DA45E2
:1001A00001D100F06BF8AFF2090EBAE80F0013F0BE
:1001B000010F18BFFB1A43F00103184784830100A5
:1001C000A48301000A444FF0000C10F8013B13F027
:1001D000070408BF10F8014B1D1108BF10F8015BA0
:1001E000641E05D010F8016B641E01F8016BF9D193
:1001F00013F0080F1EBF10F8014BAD1C0C1B09D1EA
:100200006D1E58BF01F801CBFAD505E014F8016B5B
:1002100001F8016B6D1EF9D59142D6D370470000ED
:100220000023002400250026103A28BF78C1FBD8FF
:10023000520728BF30C148BF0B607047642917F0D0
:10024000ED82752917F0EA82782917F02383632954
:1002500017F09585732917F09A85002070471FB510
:1002600017F0A0FE17F024FD04000020002117F075
:1002700083FE401C60601FBD10B510BD17F0F0FD7F
:100280001146FFF7ECFF00F012F817F00EFE03B472
:10029000FFF7F2FF03BC04F0C3FD000030BF72B6ED
:1002A000704762B6704780F3088870477047A8208F
:1002B00004F05CFD4FF4A06002F086F901F0EBFF62
:1002C000052002F0E0F8FBE70EB5002502AC0022A5
:1002D000CDE9005401231146104616F0CBFBF6E79A
:1002E0000EB5002602AD3D4C28E0012000E00020C4
:1002F000C4F888020022CDE90065C82311461046E3
:1003000016F0B8FBD4F88C02E8B10020C4F88C02D7
:100310000022CDE90065C8231146104616F0AAFB5D
:10032000D4F8900288B10020C4F890020022CDE9F0
:100330000065C8231146104616F09CFBD4F88802CD
:100340000028D4D1D1E70120E0E70120ECE72DE936
:10035000F0438BB011F095FB0AA815F02FF901219D
:100360000AAA084612F0E3FE11F06CFC07460024CE
:100370000326CDE906464FF080084FF00C09CDE981
:10038000029817480AAD0190059408950494092035
:100390002346AFF2B3020090114812A1C43815F001
:1003A0007BFBCDE906461248CDE9029801900A2070
:1003B0000594089504940023AFF2F30200900C48D2
:1003C0000CA1C43815F068FB0AA90E4816F0ADF868
:1003D000384611F03BFC0BB0BDE8F0830000424210
:1003E000F40300206C656430207461736B000000BE
:1003F000B8060020646973706C6179207461736B56
:1004000000000000B80800207047FEE7FEE7FEE7A6
:10041000FEE770470CB50022019200925849086827
:1004200040F4803008604FF4A043086800F40030C6
:1004300000900198401C0190009810B901989842D2
:10044000F3D10868800302D50120009000E00092FB
:100450000098012831D14A484030026842F0805269
:1004600002604848026842F4404202604448083052
:1004700002680260026842F400420260026842F4CC
:10048000A0520260021F404B13600A6842F0807263
:100490000A600A689201FCD53C4A40F2057111607D
:1004A000016821F003010160016841F0020101606F
:1004B0000168C1F381010229FAD10CBD10B534489D
:1004C000016841F4700101602D48016841F00101AB
:1004D00001602B4A00210832116002682D4B1A403E
:1004E0000260031D2C4A1A60026822F48022026016
:1004F00023480C300160FFF78DFF25494FF0006065
:100500008039086010BD70B51D4E0836306800F0A7
:100510000C00224B224900280FD05D1004280ED079
:1005200008280ED00B6030681D4AC0F30310121D5E
:10053000105C0A68C2400A6070BD0B60F3E70D6092
:10054000F1E70F4A121D1068C0F38054106800F0E4
:100550003F0034B1B5FBF0F01368C3F38813584380
:1005600005E0B3FBF0F01368C3F388135843126837
:10057000C2F30142521C5200B0FBF2F00860D2E715
:10058000003802400070004008544007003C024020
:1005900088ED00E0FFFFF6FE103000240024F40098
:1005A000000000207FB504460D460121022002F024
:1005B00034FBADF804500021ADF806100294ADF8FC
:1005C0000C10144C01A9204602F0F6FC0122114641
:1005D000204603F0C4F80121204602F06BFD1D20E7
:1005E0008DF8000001208DF8010003218DF8021024
:1005F0008DF80300684601F0ECFF7FBD10B5054C97
:100600000121204603F0C1F82046BDE81040012139
:1006100003F0C7B80004004010B5B0B001214FF09E
:10062000606002F0D6FA03F073FB03F0C3FF03F03F
:10063000C7FF0128FBD001A803F076FB0120019041
:10064000002008904FF400710B910C900F901290C5
:100650001490159016902190090422910A11249269
:1006600026902790042029902A9180032B908001C6
:100670002C9040122D9040002F90002101A803F0F3
:10068000F0FBC4B2012C03D101219E4803F0B3FF5B
:1006900030B0204610BD08B53D208DF80000002088
:1006A0008DF801008DF8020001208DF803006846E6
:1006B00001F08FFF08BD2DE9FC470121072002F062
:1006C00088FA0121880302F0B4FA012002F0A1FBAC
:1006D0008620009003268DF8056002208DF8040026
:1006E00000258DF8065001248DF80740864F694695
:1006F000384602F05BF80B220121384602F0CEF8B2
:100700000B220221384602F0C9F80B220721384695
:1007100002F0C4F832200090DFF8F08169464046CC
:1007200002F044F80B220121404602F0B7F80B22F8
:100730000421404602F0B2F80B220521404602F0A7
:10074000ADF84FF460500090DFF8C4916946484618
:1007500002F02CF80B221146484602F09FF80B22BB
:100760000C21484602F09AF80B220D21484602F06F
:1007700095F8E00300908DF805608DF804408DF841
:1007800006508DF807406946384602F00FF83021D0
:10079000404602F073F88021384602F06FF85D4E53
:1007A0003560322004F023FB3460FFF774FFFFF75D
:1007B00033FF10B10020BDE8FC870120FBE710B536
:1007C0001F21002003F025FBC0F3820010BD10B5EF
:1007D000514C01E005F0F4FB206803F0CEFE002848
:1007E000F8D1402003F01AFFBDE810404FF48030EC
:1007F00003F014BF3EB50023002200920192029242
:10080000454C21680D68002D0ADA44494B691B06E6
:1008100002D580234B618A609DE80E000EC03EBD6C
:100820000A6812040BD40A68D20508D50A68920532
:1008300005D50A68C2F30D431B1F8A680192009315
:100840000291C96821609DE80E000EC03EBD344A89
:1008500011680B68002B01DA00207047C0F30C0010
:100860004860086840F040500860086840F0004068
:1008700008602A4843695B0703D5042343610023CA
:100880004360C86810600120704725480068806890
:10089000704710B5234C0020216811F070F800203B
:1008A000616811F06CF80020A16811F068F8E16847
:1008B000BDE81040002011F062B870B5A021002002
:1008C00011F066F8174C2060A021002011F060F8AC
:1008D000606041F6C4552946002011F059F8A06027
:1008E0002946002011F054F8E060216831B16168B8
:1008F00021B1A16811B108B1002070BDFFF7C9FF97
:10090000012070BD400001000000024000080240CC
:1009100000040240BC024042480000200090024017
:100920004400002014000020FE4900200860091D3A
:100930000860091D0860091D0860FA492431086033
:10094000091D0860091D0860F64AF7493832116030
:10095000111D086070470021012803D010B1262125
:1009600008467047F14A5070FAE7EE4A121D1168C6
:1009700021F0FF0101431160704710B50446E949B9
:100980003431086810F0450FFBD0042004F02AF839
:1009900020B1042004F02FF8032010BD012004F042
:1009A00021F820B1012004F026F8012010BDDD4817
:1009B00010300068A04201D0102010BD40F2FF505E
:1009C00004F019F8D7481430006800F0080010BD92
:1009D0002DE9FC5F0E460024002700970197D44DB7
:1009E0004FF0080AC5F800A0102068604FF04009D9
:1009F000C5F80890EF604FF48068C5F8108028466D
:100A000003F069FF1020FFF7B8FF002832D1C74874
:100A100000890004286037206860C5F80890EF60FE
:100A2000C5F81080284603F056FF3720FFF7A5FFD2
:100A300000281FD1411E05F114000160C0F804A078
:100A4000302181600221C16007610121416103F011
:100A500069FF2F6033206860C5F80890EF60C5F823
:100A60001080284603F037FF3320FFF786FF054646
:100A7000280001D0BDE8FC9FDFF8A882DFF8A4922F
:100A80004FF4001B6F4608F1800809F1340940F269
:100A90002A6A0AE0584603F0A5FF30B1D8F80000F2
:100AA00047F82400641C022C04D2D9F8000010EA94
:100AB0000A0FEFD0082003F095FF20B1082003F0C3
:100AC0009AFF0420D6E7022003F08CFF20B1022019
:100AD00003F091FF0220CDE7202003F083FF20B137
:100AE000202003F088FF0620C4E74FF4007420465E
:100AF00003F078FF20B1204603F07DFF0720B9E71F
:100B000040F2FF5003F077FF00980099000601F4CF
:100B10007F4140EA0120009901F47F0140EA112061
:100B2000009940EA1160706001980199000601F493
:100B30007F4140EA0120019901F47F0140EA112040
:100B4000019940EA11603060284693E72DE9FC41A5
:100B50000026009601960025002800D00225714845
:100B600014300068800102D50E20BDE8FC816F4C76
:100B70006946208980B2FFF72BFF0028F5D1019844
:100B8000400322D520896A4C000420603720606031
:100B90004027A760E6604FF48068C4F810802046C4
:100BA00003F099FE3720FFF7E8FE0028DDD125602D
:100BB00006206060A760E660C4F81080204603F05D
:100BC0008AFE0620FFF7D9FECFE72520CDE710B536
:100BD0000446002055490978032918D019B1012984
:100BE00001D0022912D1B4F5805F12D0E0B2FFF734
:100BF000ADFF00280AD14B49091D0A6822F4C052F2
:100C00000A600A6822430A600A680A6010BD272049
:100C100010BD272010BD10B5454908600720486069
:100C2000402088600020C8604FF48060086108465A
:100C300003F051FEBDE8104007209EE62DE9F04785
:100C40003A490C7880F856400989A0F85410DFF82A
:100C5000E08008F12C08D8F800100A0E9309037000
:100C6000C2F38303437002F0030282700A0CC27065
:100C70000A0A02714171D8F80420110E0B01C2F367
:100C8000074143EA1113C38001F00F070772C2F353
:100C90000721CB094372C1F380138372C1F3401360
:100CA000C372C1F3001303730023437345464FF02F
:100CB000010CAE68350EC6F30749C6F3072A002CAF
:100CC00006D0012C04D0032C02D0022C3CD04BE0E7
:100CD0008907090DD2B241EA820141EA9512026107
:100CE000C5F3C201017505F0070141754FEA5911BD
:100CF0008175C9F38201C1754FEA89714C0F514664
:100D000044EAD1140476521CA41C0CFA04F5A2FB8C
:100D1000054A4FEAE57903FB05A502FB09550CFAE4
:100D200007F207E0002C0140FF07C000240000206C
:100D3000980900200265A4FB027905FB029204FBDE
:100D40000322C0E912720FE09106890A41EA0522E6
:100D500042EA090202615146521C540BD204C0E916
:100D600012244FF4007202651A30C1F3801200F8A9
:100D7000012C89064A0EF1B242EAD112027001F04A
:100D80007F014170D8F80C20110ECC098470C1F39A
:100D90004114C470C1F38204047189070C0FC2F3BB
:100DA000074144EA91144471C1F340148471C37142
:100DB00001F001010172C2F30721CC094472C1F3B1
:100DC00080148472C1F34014C472C1F3001404731C
:100DD000C1F38104447301F003018173D1B2490866
:100DE000C17380F810C0FE4A11680C0E84740C0C9C
:100DF0002402C1F307252C4384820C0651680D0E92
:100E000044EA0544C1F3074544EA0524C1F3072534
:100E10002C43C0F81640817691680C0EC4760C0CF9
:100E20002406C1F3072544EA0544C9B244EA012473
:100E3000D1680A0E1443C0F81E40C1F3074290F86F
:100E4000224044EA121480F822401207120DC1F326
:100E5000072422438284C9B2490880F8261080F80A
:100E600027C01846BDE8F08710B500244FF4803144
:100E7000DC4B03E01A6812F0450F02D1491E481CF2
:100E8000F8D109B1500705D50324042003F0B3FDC0
:100E9000204610BD012003F0A5FD18B1012401205A
:100EA00003F0A9FD40F2FF5003F0A5FD204610BD60
:100EB00070B506460C460025CA4B1A6812F0450F5D
:100EC000FBD0042003F08EFD20B1042003F093FD3D
:100ED000032070BD012003F085FD20B1012003F047
:100EE0008AFD012070BDBF4824380068B04201D09F
:100EF000102070BD40F2FF5003F07DFDB94820384E
:100F0000026812F4604F03D0900405D5132070BD21
:100F1000100C2080284670BD500401D5102070BDF3
:100F2000100401D50F2070BD284670BD2DE9F84F83
:100F30000120009003F0C9FCC8B3AB4FA84CDFF808
:100F4000A492387800253C3C4FF0C008A9F1200954
:100F50004FF4806604281DD0256002206060C4F82C
:100F60000880E5602661204603F0B5FCFFF77CFFB2
:100F700000281ED1D9F800109948016009F1040138
:100F800009684160974918390968816095491439A1
:100F90000968C16038784FF0030A4FF0400B50B138
:100FA000012808D0062806D0022804D014E0FFE764
:100FB0002520BDE8F88F2560C4F804A0C4F808B067
:100FC000E560266186483C3803F085FC69460320CD
:100FD000FFF76EFF0028ECD13878032811D1BDF857
:100FE000000000042060C4F804A0C4F808B0E56064
:100FF00026617B483C3803F06EFCFFF735FF002884
:10100000D7D13878042823D0BDF80000B860000498
:10101000206009206060C4F80880E560266170489F
:101020003C3803F058FCFFF71FFF0028C1D1D9F866
:1010300000106B48103801606A491C39096841602A
:101040006849183909688160664914390968C160BE
:101050000020AEE710B56349086810F0450FFBD0DB
:10106000042003F0BFFC20B1042003F0C4FC0320E3
:1010700010BD40F2FF5003F0BEFC002010BD10B5C3
:1010800000244FF48032574B03E0196811F0450FEC
:1010900002D1521E501CF8D10AB1480705D50324CD
:1010A000042003F0A8FC204610BD480603D5002408
:1010B000402003F0A0FC204610BD70B500254FF481
:1010C000803403E0802003F08DFC10B9641E601CA6
:1010D000F8D12CB140F2FF5003F08DFC284670BDD2
:1010E000032070BD2DE9F05F4FF00008C3460024D7
:1010F000A24600253A48762154380175002707603A
:1011000047608760C760076103F0BCFB032003F002
:10111000D8FB34483038016841F480710160304EAA
:101120004FF480693C3E37607760B760F760C6F87F
:1011300010902B483C3803F0CEFBFFF7BEFF30B1D8
:1011400008F1010808F0FF08B8F14A0FEBD30028B6
:101150006DD14FF4D5703060082070604FF04008BA
:10116000C6F80880F760C6F810901D483C3803F0B8
:10117000B2FBFFF784FF18B91B48012101708D07EE
:10118000376037207060C6F80880F760C6F81090A6
:1011900013483C3803F09FFB3720FFF7EEFB4FF678
:1011A000FF7128B3DFF83CB00127ABF1200B0D46EF
:1011B0005BE0376037207060C6F80880F760C6F8DB
:1011C000109007483C3803F086FB3720FFF7D5FB2B
:1011D00000282CD10548284330602920706008E0A1
:1011E000D4090020342C014024000020000010808D
:1011F00011E0C6F80880F760C6F81090F74803F0D1
:101200006AFBFFF727FF002811D1F549D1F800B09C
:101210004FEADB7A641CBAF1000F03D14FF6FF717D
:101220008C42C6D34FF6FF718C4202D31B20BDE81F
:10123000F09F1BF0804FFAD0EA4902220A70F6E7CD
:10124000E94830607760C6F808800020F060C6F892
:101250001090E24803F03FFBFFF7FCFE0028E6D1C8
:10126000DBF800104FEAD17A641CBAF1000F01D10B
:10127000AC42E5D3AC4201D31B20D8E7D9490322C5
:101280000A70D4E72DE9FE4300250121D74801F07B
:10129000A0FC0121CF02384601F0CBFC01213846E9
:1012A00001F003FD4FF4F850019002208DF8080082
:1012B0008DF8090000248DF80A4001268DF80B6096
:1012C000DFF82C8301A9404601F070FA0420019058
:1012D000DFF8209301A9484601F068FA0C220821A2
:1012E000404601F0DBFA0C220921404601F0D6FA13
:1012F0000C220A21404601F0D1FA0C220B21404673
:1013000001F0CCFA0C221146404601F0C7FA0C223B
:101310000221484601F0C2FA0021384601F0C5FC1E
:10132000FFF702FB31208DF800008DF801408DF8A9
:1013300002408DF80360684601F04BF9FFF7D2FEDA
:1013400008B9FFF7F3FD18B9A4485030FFF776FC51
:10135000A24C503420B9B4F854000004FFF75BFCF1
:1013600010B93846FFF733FC18B19E4909780329B4
:101370000BD194F8560008B1012800D10225284667
:10138000FFF7F3FA0020FFF7E6FABDE8FE8310B599
:10139000002003F096FA002010BD70B590B004460E
:1013A0001546954E304603F052FC0028FAD13046DF
:1013B00003F03AFB4FF00060019089486C300290D6
:1013C000039404950020059006904FF480610791E6
:1013D00089000891890009910A904FF440300B90E0
:1013E00004200C9003200D9048020E9080100F9066
:1013F00001A9304603F0A3FB2021304603F0F0FBA7
:101400000121304603F0D4FB10B070BD002102E092
:101410004008491CC9B20128FAD1084670472DE995
:10142000F84F0546DDF8288016461F464FF0FF347A
:10143000002D0AD06A48002118300160DFF8A4911D
:1014400099F80000022802D006E02620B1E54FF40A
:101450000078760A46EAC756DFF880A10F460AF1FF
:10146000140ACAF80810CAF804704FF0FF30CAF81E
:1014700000000120CAF81400CAF80C70CAF81070F5
:10148000504603F04FFA56480068800101D50E20FF
:101490008FE5A8F10100B0F5006F4AD218EA000FFD
:1014A00047D14046FFF7B2FF0090DFF830B1CBF8EC
:1014B00000801020CBF804004020CBF80800CBF8C7
:1014C0000C700001CBF81000584603F004FA10200D
:1014D000FFF753FA0028B9D100980001CAF80800B4
:1014E000CAF804804FF0FF30CAF800000120CAF8A3
:1014F00014000220CAF80C00CAF810700BF1140096
:1015000003F010FACBF800601120CBF80400402063
:10151000CBF80800CBF80C700001CBF8100058464F
:1015200003F0D9F91120FFF728FA0646300002D05F
:101530003FE526203DE599F8010010B1012870D063
:101540009AE0FEF7ACFE264FDFF894906C374FF42C
:10155000004BDFF8A88009F1200940F22A6A0FE069
:10156000584603F03FFA48B10020396845F820108A
:10157000401C0828F9D32035444601E074B1641EAC
:10158000D9F8000010EA0A0FEAD0082003F02AFA7E
:1015900030B1082003F02FFA04200AE5042008E502
:1015A000022003F01FFA20B1022003F024FA0220E7
:1015B000FFE4202003F016FA20B1202003F01BFAEC
:1015C0000620F6E44FF40074204603F00BFAB8B19D
:1015D000204603F010FA0720EBE422E098090020EF
:1015E000142C0140240000200080FF800C004000EB
:1015F00000080240000C024058640240FFFF7F00D8
:101600004FF4001401E0386801C5204603F0EAF900
:101610000028F8D1FEF745FE40F2FF5003F0EBF949
:101620002AE089F8037089F8027089F80470FE488E
:10163000016840F22A3211430160FB48103801680A
:1016400041F008010160002241462846FFF7A5FE4F
:10165000F64800E0641E0168090107D499F80410F7
:1016600021B999F8031009B9002CF3D134B199F8D4
:10167000030008B199F8036030469AE4042098E426
:101680002DE9FF5F82B01546DDE910781E464FF068
:10169000FF3A5446DFF898930298C9F80C00E249E3
:1016A00000201039086099F80010022903D10F02B8
:1016B0006D0A45EAC655DFF87CB30646CBF808004C
:1016C000CBF80460CBF800A00120CBF81400CBF8D5
:1016D0000C60CBF81060584603F024F9D248283843
:1016E0000068800102D50E2006B0A0E5781EB0F596
:1016F000006F1AD2074218D13846FFF787FE0190D3
:10170000CC481438076010214160402181600021DD
:10171000C1604FF48061016103F0DDF81020FFF734
:101720002CF90646300002D0DEE72620DCE7B8F1CF
:10173000010F3BD908FB07F8B8F1007F01D3262041
:10174000D2E701980001CBF80800CBF80480CBF871
:1017500000A00120CBF814000220CBF80C000027D9
:10176000CBF81070B34803F0DDF8DFF8C8A2AAF197
:10177000140ACAF800501220CAF804004025CAF81A
:101780000850CAF80C704FF4806BCAF810B050467D
:1017900003F0A1F81220FFF7F0F80646300000D061
:1017A000A2E799F8010010B101287DD0B3E0FEF75F
:1017B00076FDDFF8748208F1440815E04FF400402C
:1017C00003F010F970B10020D9F80C10D8F80020FF
:1017D00041F82020401C0828F8D32031C9F80C100B
:1017E000954C01E084B1641E8F480838006840F2CF
:1017F0002A310842E2D0082003F0F4F830B1082082
:1018000003F0F9F804206FE704206DE7022003F0ED
:10181000E9F820B1022003F0EEF8022064E720206E
:1018200003F0E0F820B1202003F0E5F806205BE7A4
:101830004FF40074204603F0D5F820B1204603F0A1
:10184000DAF8072050E74FF4001406E0D8F800104B
:10185000D9F80C0002C0C9F80C00204603F0C2F809
:101860000028F3D14FF4807003F0BCF8E8B199F888
:10187000000018B1012801D0022816D1CAF8007062
:101880000C20CAF80400CAF80850CAF80C70CAF84C
:1018900010B06848143803F01EF80C20FFF76DF8FC
:1018A0000646300001D01FE706E0FEF7FAFC40F2E2
:1018B000FF5003F0A0F82EE089F80370012089F8AA
:1018C000020089F804705848016840F22A32114336
:1018D000016055481038016841F008010160414637
:1018E00000220298FFF759FD504800E0641E01688D
:1018F000090101D4002CF9D10CB90420F4E699F8BF
:10190000040018B999F803000028F8D099F80300EA
:1019100008B199F803603046E6E61CB5044600229B
:10192000019200924248434900890004143908603A
:101930000D20486040208860CA60000108610846A8
:1019400002F0C9FF384908390868009001E00A68C8
:101950000092009A12F0450FF9D0012003F042F8EE
:1019600020B1012003F047F801201CBD042003F042
:1019700039F820B1042003F03EF803201CBD2A48AA
:101980002C3800680D2801D010201CBD40F2FF50FB
:1019900003F031F824482838006801900198C0F31A
:1019A0004320207000201CBD2DE9FC5F0446DDF8BB
:1019B000308016461F464FF0000ACDF800A00025E3
:1019C000C146002C1AD018481038C0F800A0194899
:1019D000C0F808A0C0F804A0691E0160012141619F
:1019E000C0F80CA0C0F810A002F09CFF0E482838E8
:1019F0000068800104D50E20BDE8FC9F2620FBE78F
:101A00000B480078022804D14FF40078760A46EAA1
:101A1000C756A8F10100B0F5006F47D218EA000FD1
:101A200044D140460AE000003C2C014000640240E2
:101A300024000020AC090020FFFF7F00FFF7E6FC38
:101A40000190F848C0F8008010214160402787606D
:101A50000021C1604FF4806BC0F810B002F03BFF72
:101A60001020FEF78AFF0028C6D1EF48DFF8B4A3A4
:101A700000890004CAF800000D20CAF804004020C4
:101A8000CAF808000020CAF80C00CAF810B0504686
:101A900002F021FF0D20FEF770FF0028ACD1E349D2
:101AA00008684FF0FF374FF0000B1CE02620A3E73B
:101AB0007F1EDD4800890004CAF800000D20CAF826
:101AC00004004020CAF80800CAF80CB00001CAF8A7
:101AD0001000D44802F0FFFE0D20FEF74EFF002854
:101AE0008AD1D2480068C00501D4002FE0D187B365
:101AF000CAF800601820CAF804004020CAF808009C
:101B0000CAF80CB00001CAF81000C64802F0E3FEA3
:101B10001820FEF732FF0028C9D1C34F87F802B062
:101B200001980101BF4814308160C0F804804FF073
:101B3000FF3AC0F800A001214161C0F80CB0C0F824
:101B400010B002F0EFFE5646787828B1012868D030
:101B50009EE0FFE729204FE7FEF7A1FBB34FDFF838
:101B6000CC826C3708F1200840F21A6A25E04FF465
:101B7000804002F037FFF0B1A9EB050020280ED21B
:101B8000810703D08108491C002005E08108FBE79C
:101B900004CC3A60401C2D1D8842F9D308E0002097
:101BA00054F820103960401C0828F9D3203420351F
:101BB0006FF0404601E076B1761ED8F8000010EADA
:101BC0000A0FD4D0082002F00DFF30B1082002F037
:101BD00012FF042010E704200EE7022002F002FFAB
:101BE00020B1022002F007FF022005E7102002F0DA
:101BF000F9FE20B1102002F0FEFE0520FCE64FF4B5
:101C00000074204602F0EEFE20B1204602F0F3FE02
:101C10000720F1E6FEF745FB40F2FF5002F0EBFE35
:101C200036E087F803B087F802B087F804B07F4841
:101C30002830016840F21A321143016040224146C7
:101C40002046FFF7AAFB79481830016841F00801E7
:101C50000160774800E0761E0168090101D4002E7A
:101C6000F9D12EB9FFF70EFB0420C5E6AAF1010A4F
:101C7000387920B9F87810B9BAF1000FF6D1BAF175
:101C8000000F03D0F87818B1F878B5E60420B3E671
:101C900040F2FF5002F0AFFE6846FFF73EFE02E062
:101CA0006846FFF73AFE002894D19DF800100729F6
:101CB000F6D00629F4D09FE62DE9FC5F0446DDE965
:101CC0000C8916461F4600200090002509FB08FAE3
:101CD000002C17D08346554859461830C0F800B03C
:101CE00050481430816041606A1E026001224261E6
:101CF000C160016102F016FE4C480068800103D506
:101D00000E2079E6262077E647480078022804D19D
:101D10004FF40078760A46EAC756A8F10100B0F5FC
:101D2000006F24D218EA000F21D14046FFF76EFB66
:101D300001903C4FC7F80080102078604020B860C8
:101D4000C7F80CB000013861384602F0C4FD10201D
:101D5000FEF713FE0028D4D1B9F1010F60D909FBB9
:101D600008F08046B0F1007F03D3262044E6262009
:101D700042E62D48007818B1012801D0022825D16B
:101D80002948008900043860372078604020B86016
:101D9000C7F80CB000013861224802F09CFD3720E2
:101DA000FEF7EBFD0028ACD1C7F800901720786053
:101DB0004020B860C7F80CB000013861194802F043
:101DC0008AFD1720FEF7D9FD00289AD13E60192020
:101DD00078604020B860C7F80CB000013861114845
:101DE00002F079FD1920FEF7C8FD002889D101987D
:101DF00001010C4814308160C0F804804FF0FF36B8
:101E0000066001214161C0F80CB0C0F810B002F0CA
:101E100089FDDFF8149099F8010058B101287DD0B0
:101E2000C4E000009809002024000020142C014088
:101E300000640240FEF733FADFF8CC8327E04FF46A
:101E4000804002F0CFFD00B3AAEB050020280FD29E
:101E5000810703D08108491C002006E08108FBE7C8
:101E600004CCC8F80020401C2D1D8842F8D309E09E
:101E7000002054F82010C8F80010401C0828F8D39F
:101E8000203420356FF0404601E086B1761EDE48F2
:101E90004C38006840F21A310842D0D0082002F0D5
:101EA000A1FD30B1082002F0A6FD0420A4E5042025
:101EB000A2E5022002F096FD20B1022002F09BFD77
:101EC000022099E5102002F08DFD20B1102002F0D3
:101ED00092FD052090E54FF40074204602F082FD4B
:101EE00020B1204602F087FD072085E54FF4807081
:101EF00002F078FDD0B199F8000018B1012801D0A6
:101F0000022813D1C7F800B00C2078604020B860D8
:101F1000C7F80CB000013861BC4800E00DE002F0E9
:101F2000DAFC0C20FEF729FD0028BFD1FEF7B9F935
:101F300040F2FF5002F05FFD38E089F803B0012065
:101F400089F8020089F804B0AF4A443A116840F2B7
:101F50001A3001431160414640222046FFF71DFA26
:101F6000A9485438016841F0080101603046A84989
:101F700000E0401E0A68120101D40028F9D120B9FE
:101F8000FFF780F9042037E5761E99F8040020B9A0
:101F900099F8030008B9002EF6D12EB199F8030084
:101FA00020B199F8030027E5042025E540F2FF5011
:101FB00002F021FD6846FFF7B0FC02E06846FFF73B
:101FC000ACFC002886D19DF800100729F6D0062920
:101FD000F4D011E52DE9F0414FF4807002F002FDDC
:101FE000894C8C4D443C4CF23A3610B3A878002111
:101FF00001280ED0E97084484838016841F48071A6
:1020000001602068B043206001202871E878BDE8B5
:10201000F0817E4801600C22426040228260C160F3
:102020001101016102F057FC0C20FEF7A6FCE870DC
:10203000E1E7022002F0D6FC40B1022002F0DBFC16
:102040002068B04320600220E870E0E7082002F03A
:10205000C9FC40B1082002F0CEFC2068B0432060EB
:102060000420E870D3E7202002F0BCFC40B120201F
:1020700002F0C1FC2068B04320600620E870C6E78B
:10208000102002F0AFFC40B1102002F0B4FC206838
:10209000B04320600520E870B9E74FF40077384678
:1020A00002F0A0FC40B1384602F0A5FC2068B04325
:1020B00020600720E870AAE70020A8E78AE710B5AB
:1020C0000446002C19D05348008901044F48016090
:1020D0000D214160402181600021C1604FF4806189
:1020E000016102F0F8FB0D20FEF747FC002803D148
:1020F00045496C390968216010BD262010BD08B51E
:10210000002000906846FFF7DAFF08B1FF2008BD05
:102110000098C0F3432008BD2DE9FC4707469046D0
:102120004FF0000A0C46E50D6402B8074FF4007941
:102130001AD0002615E07002021945EBE07333480F
:10214000CDF8009000F1A800FFF769F982462F4909
:102150004A46A831384615F0D8FC07F50077761CBA
:10216000F6B24645E7D30AE0B8F1010F0AD0CDE94F
:10217000009822462B463846FFF782FA82465046A0
:10218000BDE8FC8722462B463846CDF80090FFF785
:1021900046F98246F3E72DE9FC47074690460020C2
:1021A0000C46E50D6402B9074FF4007919D00026FA
:1021B00014E016484A463946A83015F0A6FC7002CD
:1021C000021945EBE0731148CDF8009000F1A8002A
:1021D000FFF7EAFB07F50077761CF6B24645E8D331
:1021E000CEE7B8F1010F07D0CDE9009822462B4683
:1021F0003846FFF761FDC3E722462B463846CDF847
:102200000090FFF7D1FBBBE7802C0140980900202C
:10221000006402402400002070B5D74C4FF4B46134
:10222000204602F0E9FCD54D0121284600F042FF8E
:102230000121204602F0BCFC4FF0C056314620463A
:1022400002F010FD0128F9D10021284600F032FFEC
:102250000021284601F064F80021204602F0A8FC85
:1022600031462046BDE8704002F011BD30B4002177
:10227000C34C2122002001EB410304EB031323F89C
:102280001020401CC0B21828F9D3491C89B23C293F
:10229000F0D330BCC0E7F0B599B00121022000F0C6
:1022A00098FC0121042000F0B8FC0121480500F051
:1022B00090FC8020179003268DF8616002208DF835
:1022C000600000248DF86240AE4D17A9284600F04A
:1022D0006DFA02220721284600F0E0FAADF85040DE
:1022E000ADF8524068201590ADF858408DF85A402E
:1022F000A24F14A9384600F05FFE6020ADF83C0004
:102300000120ADF83E001194ADF84840ADF84040D2
:10231000ADF84A404002ADF84C00ADF84E400FA970
:10232000384600F003FF0121384601F0F2F9082198
:10233000384601F021F80021384600F0BBFE0122AA
:1023400095022946384601F033FA8B4F384602F0A1
:102350006BFB384602F07BFC0028FAD14FF080601E
:1023600000908648383001908548029040200390C4
:102370004FF4B4600490059406954FF40060079004
:102380000890099480010A900B940C960D940E9479
:102390006946384602F0D3FB0021384602F008FCBB
:1023A000FFF764FF642002F022FD19B0F0BD0904BC
:1023B00041EA00201043704710B50C463C2812D269
:1023C00000226F4900EB400001EB001304FA02F118
:1023D000080201D5482000E0212023F81200521CF9
:1023E000D2B2182AF2D310BDC0F1FF00552808D28E
:1023F00000EB4001A0EB8000401ECAB2C0B2002139
:10240000D5E7AA2809D25538A0EB8001491ECAB2E7
:1024100000EB4000C1B20020C9E7AA38A0EB800160
:10242000491E00EB4000C9B2C0B20022BFE770B540
:1024300005460E46002429462046FFF7BDFFFFF75C
:10244000EBFE304602F0D3FC641CA4B23C2CF2D369
:1024500070BD70B50646002500246019C0B2FFF7B4
:10246000C3FF01462046FFF7A7FF641CA4B23C2C23
:10247000F3D3FFF7D1FE304602F0B9FC6D1CADB2CC
:10248000FF2DE9D970BD2DE9F041804600253C269D
:102490004FF4A06700242002B0FBF6F02844C0B23D
:1024A000FFF7A2FF01462046FFF786FF641CA4B297
:1024B0003C2CF0D3FFF7B0FE404602F098FC6D1CB8
:1024C000ADB2BD42E6D3BDE8F0812DE9F04107464B
:1024D0008846002600240025281980B23946FFF7D7
:1024E0006BFFED1CADB23C2DF6D3FFF795FE4046D9
:1024F00002F07DFC0025281980B20021FFF75CFF67
:10250000ED1CADB23C2DF6D3641CA4B2032CE2D377
:10251000761CB6B20A2EDDD3D5E72DE9F041804610
:102520000027FF2600250024E019B0FBF6F106FB8A
:102530001100FFF759FF0146601980B2FFF73CFF19
:10254000E41CA4B23C2CEFD3FFF766FE404602F039
:102550004EFC0024601980B20021FFF72DFFE41C1F
:10256000A4B23C2CF6D36D1CADB2032DDBD37F1C83
:10257000BFB2FF2FD6D9A6E758600240000800403E
:10258000400C0020000402400948804709480047E9
:10259000FEE7FEE7FEE7FEE7FEE7FEE7FEE7FEE713
:1025A000FEE7FEE704480549054A064B7047000070
:1025B000BD04000889010008E0DE0120E0E40120FC
:1025C000E0E00120E0E001202B4908432B490860AE
:1025D000704730B50F23C27801250178002A1FD03B
:1025E000264A126802F4E062C2F5E062C2F30722F2
:1025F000C2F10404D3404278A24084781C401443C2
:10260000220101F1E02181F80024007800F01F018F
:102610008D404009800000F1E020C0F8005130BD3D
:1026200001F01F0085404809800000F1E020C0F85B
:10263000805130BD124A114001431048001F016013
:1026400070470E4A121D002903D011680143116022
:10265000704711688143116070474FF0E0210428F2
:1026600004D0086920F0040008617047086940F050
:1026700004000861704700000000FA050CED00E05E
:1026800080FFFF1F10B58D49884209D101210846FE
:1026900000F0DBFA0021BDE81040012000F0D5BABF
:1026A0008749884209D10121022000F0CEFA002199
:1026B000BDE81040022000F0C8BA8249884209D122
:1026C0000121042000F0C1FA0021BDE810400420DF
:1026D00000F0BBBA7C49884209D10121082000F0F2
:1026E000B4FA0021BDE81040082000F0AEBA7749E6
:1026F000884209D10121102000F0A7FA0021BDE88D
:102700001040102000F0A1BA7149884209D101217E
:10271000202000F09AFA0021BDE81040202000F0AF
:1027200094BA6C49884209D10121402000F08DFA09
:102730000021BDE81040402000F087BA6649884279
:1027400009D10121802000F080FA0021BDE810406D
:10275000802000F07ABA614988420AD184150121AB
:10276000204600F072FA2046BDE81040002100F03B
:102770006CBA5B4988420AD144150121204600F019
:1027800064FA2046BDE81040002100F05EBA5549C9
:1027900088420AD104150121204600F056FA20464D
:1027A000BDE81040002100F050BA10BD2DE9F04105
:1027B000002201274FF0030C07FA02F50B682B40AB
:1027C000AB422CD1066853000CFA03F4A643066012
:1027D0000E79D0F800809E4046EA080606600E7921
:1027E000012E01D0022E12D18668A64386604E7952
:1027F000D0F808809E4046EA080686604668AE43E8
:10280000466045688E799640B6B235434560C568E6
:10281000A543C560CC799C40C3681C43C460521C6E
:10282000102AC9D3BDE8F0814FF6FF710160002185
:10283000017141718171C171704708B541F48032F5
:102840000092009AC261C1610099C161C169C06909
:10285000009008BD0246002012690A4200D0012003
:102860007047006980B270470246002052690A42F0
:1028700000D001207047406980B2704701837047E3
:1028800041837047002A01D001837047418370471C
:102890004161704742694A404261704710B54B0739
:1028A000DB0E9A40C90800EB8100016A0F249C40AE
:1028B000A1430162016A1143016210BD00000240A0
:1028C0000004024000080240000C024000100240D8
:1028D0000014024000180240001C02400020024088
:1028E0000024024000280240FA48016841F001013A
:1028F0000160F84A0021083211600268F64B1A4064
:102900000260031DF54A1A60F24BF54A84331A60DF
:10291000F24A103A1B1D1A60026822F480220260FB
:10292000EC480C300160181D01607047E949002235
:10293000891C0A700870704702460020510901295D
:102940000CD002290DD0E3497431096802F01F024E
:10295000012393400B4200D001207047DD490968F4
:10296000F4E7DC4970310968F0E718B50020009001
:102970004FF4A0443120FFF7DFFF0099491C00917C
:102980000099A14201D00028F4D03120FFF7D4FFF4
:1029900008B1012018BD002018BDCE4A116821F0F1
:1029A000F80141EAC00010607047CE4908607047E6
:1029B000C849002270310A700A70012804D0042826
:1029C00001D1052008707047012008707047C64982
:1029D0000860704710B5029C41EA82114FF0FF3247
:1029E00002EB530241EA0241014341EA0460B94962
:1029F000091D086010BDBB4908667047800140EAA8
:102A00000170B449843108607047B64988667047E0
:102A1000800140EA0160AF4940EA027088310860F5
:102A20007047B04908677047AE49C8647047A94B02
:102A300008331A6822F0EC620843104318607047AC
:102A4000A44B08331A6822F07842084310431860F8
:102A50007047A04A0832116821F003010143116058
:102A600070479C480830006800F00C007047994A95
:102A70000832116821F0F001014311607047954A56
:102A80000832116821F4E051014311607047914A06
:102A90000832116821F4604141EAC00010607047BB
:102AA00070B58C4B0833196801F00C018F4C00296C
:102AB0001ED0661004291DD008291DD00460196895
:102AC00001F0F00109098A4A545C0168E140416063
:102AD0001C6804F4E054A40A145D21FA04F4846030
:102AE0001B6803F460435B0BD25CD140C16070BDD6
:102AF0000460E4E70660E2E7764A121D1168C1F35C
:102B00008055116801F03F0135B1B6FBF1F1146851
:102B1000C4F38814614305E0B4FBF1F11468C4F315
:102B2000881461431268C2F30142521C5200B1FB87
:102B3000F2F10160C3E7C0F30121032908D1654B1D
:102B40000833196821F4F8126A49014011431960E9
:102B5000604A70321168C0F30B0001431160704786
:102B600061494439086070475F49403908607047DF
:102B7000614908607047574A8C32116821F01F0183
:102B8000401E014311607047524A8C32116821F493
:102B9000F851401E41EA0020106070474D4A8C32C7
:102BA000116821F44011014311607047494A8C3289
:102BB000116821F44001014311607047454A8C328D
:102BC000116821F440310143116070474B4908609E
:102BD0007047404A3032002903D011680143116028
:102BE000704711688143116070473A4A34320029B6
:102BF00003D011680143116070471168814311606F
:102C00007047344A3832002903D0116801431160FB
:102C1000704711688143116070472E4A4032002985
:102C200003D011680143116070471168814311603E
:102C30007047284A4432002903D0116801431160CB
:102C400070471168814311607047224A1032002991
:102C500003D011680143116070471168814311600E
:102C600070471C4A1432002903D0116801431160D7
:102C700070471168814311607047164A1832002965
:102C800003D01168014311607047116881431160DE
:102C90007047104A2032002903D0116801431160A7
:102CA000704711688143116070470A4A2432002935
:102CB00003D01168014311607047116881431160AE
:102CC0007047044A503200291AD01168014311603C
:102CD0007047000000380240FFFFF6EA1030002481
:102CE0000030002000004742800E47420024F400DC
:102CF00034000020FFFCFF0F5C014742E011474217
:102D0000116881431160E3E72E4A002903D011685E
:102D100001431160DCE7116881431160D8E7294A5B
:102D2000121D002903D0116801431160D0E711681A
:102D300081431160CCE7234A0C32002903D011688B
:102D400001431160C4E7116881431160C0E71D4A67
:102D50001032002903D0116801431160B8E71168EF
:102D600081431160B4E717491C31012804D0086879
:102D700020F008000860ABE7086840F00800086031
:102D8000A6E7104A473A002903D011780143117091
:102D90009EE71178814311709AE70A482030016854
:102DA00041F08071016093E701460020054A483AEE
:102DB00012680A428CD001208AE70249463908701D
:102DC00086E700005438024010B501218C032046EC
:102DD000FFF76BFF2046BDE810400021FFF765BFFD
:102DE00013490860704713490862704710B58A0795
:102DF000120F0F23934021F003040F49214401F6E1
:102E000008010C689C430C600B68904003430B6006
:102E100010BD0849DC3108607047084908607047F8
:102E20000020034920310968C90500D501207047F9
:102E300000380140000027420030014000042742D2
:102E400010B5F949884209D101210846FFF72DFF45
:102E50000021BDE810400120FFF727BFB0F1804FEF
:102E60000CD0F249884213D101210220FFF711FF53
:102E70000021BDE810400220FFF70BBF01210846EA
:102E8000FFF707FF0021BDE810400120FFF701BF59
:102E9000E749884209D101210420FFF7FAFE002109
:102EA000BDE810400420FFF7F4BEE249884209D192
:102EB00001210820FFF7EDFE0021BDE810400820A9
:102EC000FFF7E7BEDC49884209D101211020FFF756
:102ED000E0FE0021BDE810401020FFF7DABED74920
:102EE000884209D101212020FFF7D3FE0021BDE84F
:102EF00010402020FFF7CDBED149884209D10121E1
:102F00000220FFF7D2FE0021BDE810400220FFF7AB
:102F1000CCBECC4988420AD101210C042046FFF7DF
:102F2000C4FE2046BDE810400021FFF7BEBEC649E2
:102F300088420AD101214C042046FFF7B6FE204604
:102F4000BDE810400021FFF7B0BEC04988420AD159
:102F500001218C042046FFF7A8FE2046BDE8104062
:102F60000021FFF7A2BEBA49884209D101214020C1
:102F7000FFF78FFE0021BDE810404020FFF789BE1B
:102F8000B449884209D101218020FFF782FE002147
:102F9000BDE810408020FFF77CBEAF4988420AD1CF
:102FA000841501212046FFF774FE2046BDE810403D
:102FB0000021FFF76EBE10BD30B502889A4CA04DBF
:102FC000A0420DD0A8420BD0B0F1804F08D0974B53
:102FD000984205D0964B984202D0964B984203D126
:102FE00022F070034A881A43934B984206D0934BC1
:102FF000984203D022F440730A891A4302804A6837
:10300000C2620A880285A04201D0A84201D1897A11
:1030100001860121818230BD4FF0FF3141600021E6
:1030200001800181418081727047018582827047F1
:10303000028822F070020A430280704741627047A2
:10304000C1627047406A7047008D7047002904D004
:10305000018841F0020101807047018821F00201DE
:1030600001807047002904D0018841F004010180EB
:103070007047018821F0040101807047002904D0C5
:10308000018841F0800101807047018821F08001B2
:1030900001807047028822F00802028002880A43F9
:1030A00002807047028822F44072028002880A433C
:1030B00002807047002904D0018841F0010101809D
:1030C0007047018821F001010180704730B5028C02
:1030D00022F001020284058C8388028B22F07002A8
:1030E00022F003020C88144325F002028D89154357
:1030F0004A882A434C4DA84202D0514DA8420FD1D4
:1031000022F00805CA892A4322F004058A882A4346
:1031100023F4807323F400730D8A1D434B8A2B43E1
:103120008380048389684163028430BD70B5028C5A
:1031300022F010020284028C8388048B24F4E04481
:1031400024F440760D884FF6FF7404EA05253543D4
:1031500022F020028E8904EA061616434A8804EA01
:1031600002123243304EB04202D0354EB04217D137
:1031700022F08002CE8904EA0616164326F04006A5
:103180008A8804EA0212324323F4806323F4006342
:103190000E8A04EA86061E434B8A04EA83033343FD
:1031A0008380058389688163028470BD70B5028C59
:1031B00022F480720284028C8388848B24F0700451
:1031C00024F003040D88254322F400728E894FF603
:1031D000FF7404EA062616434A8804EA02223243B0
:1031E000114EB04202D0164EB04217D122F4006602
:1031F000CA8904EA0222324322F480668A8804EAF9
:103200000222324323F4805323F400530E8A04EA4B
:1032100006161E434B8A04EA0313334383808583D7
:103220008968C163028470BD000001400004004051
:1032300000080040000C0040001000400014004056
:1032400000040140004001400044014000480140AA
:1032500000180040001C00400020004070B5028CA7
:1032600022F480520284058C8288838B23F4E0430D
:1032700023F440760C884FF6FF7303EA04243443AA
:1032800025F400558E8903EA06362E434D8803EA5D
:1032900005353543FE4EB04202D0FE4EB04205D158
:1032A00022F480460A8A03EA8212324382808483AF
:1032B000896801640584B6E700210180418081802E
:1032C00081608181C18101824182704730B500F106
:1032D000180301248C40058CA5430584002912D0D5
:1032E000082910D0091FC1F34E001844016848F6A0
:1032F000FF731940016001684FF6FF7303EA022271
:103300001143016030BD03EB510001684FF68F732C
:103310001940016001681143016030BD416370478D
:1033200081637047C163704701647047028B22F06C
:1033300070020A4302837047028B22F4E0424FF688
:10334000FF7303EA0121114301837047828B22F04E
:1033500070020A4382837047828B22F4E0424FF668
:10336000FF7303EA0121114381837047028B22F02E
:1033700008020A4302837047028B22F400624FF670
:10338000FF7303EA0121114301837047828B22F00E
:1033900008020A4382837047828B22F400624FF650
:1033A000FF7303EA0121114381837047028B22F0EE
:1033B00004020A4302837047028B22F480624FF6B4
:1033C000FF7303EA0121114301837047828B22F0CE
:1033D00004020A4382837047828B22F480624FF694
:1033E000FF7303EA0121114381837047028B22F0AE
:1033F00080020A4302837047028BC2F30E024FF62B
:10340000FF7303EA0121114301837047828B22F08D
:1034100080020A4382837047828BC2F30E024FF60A
:10342000FF7303EA0121114381837047028C22F06C
:1034300002020A4302847047028C22F008020A4307
:1034400002847047028C22F020024FF6FF7303EAD9
:103450000111114301847047028C22F080024FF663
:10346000FF7303EA0111114301847047028C22F4B7
:1034700000724FF6FF7303EA012111430184704784
:10348000028C22F400624FF6FF7303EA012111431C
:1034900001847047028C22F400524FF6FF7303EA56
:1034A000013111430184704710B501238B40048C16
:1034B0009C430484038C8A401343038410BD10B5DD
:1034C00004238B40048C9C430484038C8A40134364
:1034D000038410BD828B22F440628283828B4FF67C
:1034E000FF7303EA01210A438283704770B5048C9D
:1034F00024F480540484858B068C4FF6FF7404EA10
:10350000013125F4734504EA02222A4304EA033315
:10351000134326F420420A4342F4805183830184FA
:1035200081E6828B22F00C028283828B0A438283A3
:103530007047F0B5048C24F480740484868B058C69
:103540004FF6FF7707EA012426F0F30607EA031196
:103550001143314325F42062224342F48072818377
:103560000284F0BD028B22F440620283028B4FF68C
:10357000FF7303EA01210A430283704770B5048C8C
:1035800024F010040484058B068C4FF6FF7404EAC3
:10359000011125F4734504EA03332B4304EA0222A4
:1035A0001A4326F0A0030B4343F010010283018469
:1035B00039E6028B22F00C020283028B0A4302835B
:1035C000704770B5048C24F001040484058B048CCE
:1035D00025F0F3054FF6FF7606EA031313432B435A
:1035E00024F00A020A4342F00101038301841AE62F
:1035F00070B506460C4625886188A2882389002D6F
:103600000BD0042D11D0082D17D03046FFF76EFFD8
:10361000E1883046BDE870405CE73046FFF7D1FFF7
:10362000E1883046BDE87040C3E73046FFF7A6FFAB
:10363000E1883046BDE8704094E73046FFF779FFF7
:10364000E1883046BDE870406BE700210180418091
:1036500001228280C180018170472DE9F041074637
:103660000C46002501266188002900D10225A28888
:10367000012A00D1022620882389B0B13846FFF7FD
:103680007DFFE1883846FFF76DFF2389324603E06E
:10369000000001400004014029463846FFF791FF31
:1036A000E1883846BDE8F04183E73846FFF789FFF7
:1036B000E1883846FFF77DFF2389324629463846A0
:1036C000FFF75CFFE1883846BDE8F0414AE7406B10
:1036D0007047806B7047C06B7047006C704710B5C7
:1036E0000A884B88CC881A438B8823431A430B895A
:1036F0001A434B8989891A430A43A0F8442010BD14
:103700000021018041808180C180018141818181CE
:103710007047002905D030F8441F41F40041018072
:10372000704730F8441FC1F30E0101807047002933
:1037300004D0818841F0040181807047818821F0A4
:10374000040181807047002904D0818841F0010183
:1037500081807047818821F0010181807047002AB3
:1037600003D082890A438281704782898A43828199
:1037700070478182704702460020128A0A4200D0B8
:1037800001207047C9430182704702460020138A16
:103790000B4092890A40002B02D0002A00D0012061
:1037A0007047C943018270471143A0F84810704721
:1037B000002A03D082890A438281704782898A4322
:1037C00082817047002904D0818841F008018180FE
:1037D0007047818821F0080181807047018921F0BC
:1037E000070101817047028922F070020A430281B9
:1037F000704700B503461846FFF7F5FF188940F0FB
:103800000700188100BD70B50D4604461146602DB5
:103810000CD001222046FFF7D4FE29462046FFF7B0
:10382000E2FF208940F007002081FCE401222046CD
:10383000FFF7A4FEF1E730B50489E4B24FF6FF7557
:1038400005EA032313430B432343038130BD10B523
:1038500004462046FFF7EFFF208920F0070040F0E4
:10386000070020F0700040F07000208110BD10B5FE
:1038700004462046FFF7DFFF208940F48040208186
:1038800010BD828822F07002828082880A43828082
:103890007047028922F00702028102890A430281ED
:1038A0007047028922F08002028102890A43028164
:1038B000704770B50589048B068C25F007050D430C
:1038C0004FF6FC410C4040F201110C4326F0220659
:1038D0004FF6FF7101EA031111433143058104835F
:1038E0000184A0E4002904D0818841F08001818016
:1038F0007047818821F0800181807047A0F85010C6
:103900007047000010B5F449884209D10121102008
:10391000FFF7CBF90021BDE810401020FFF7C5B933
:10392000EE4988420AD101214C042046FFF7B1F943
:103930002046BDE810400021FFF7ABB9E8498842B6
:103940000AD101218C042046FFF7A3F92046BDE8E7
:1039500010400021FFF79DB9E24988420AD10121B8
:10396000CC042046FFF795F92046BDE81040002121
:10397000FFF78FB9DC4988420AD101210C052046A6
:10398000FFF787F92046BDE810400021FFF781B915
:10399000D649884209D101212020FFF786F900216C
:1039A000BDE810402020FFF780B9D14988420AD1F4
:1039B00001218C072046FFF76CF92046BDE8104036
:1039C0000021FFF766B9CB4988420AD1440501219D
:1039D0002046FFF75EF92046BDE810400021FFF7C2
:1039E00058B910BD7FB504460D46208A20F44051D9
:1039F000E88808432082A08941F20C618843A988A5
:103A00002A8911436A8902431143A181A08A20F4C3
:103A10004071A8890843A0826846FFF741F8AE4884
:103A2000844202D0B148844201D1039800E0029858
:103A3000A189090408D500EBC00101EB0010296839
:103A40004900B0FBF1F007E000EBC00101EB001012
:103A500029688900B0FBF1F06422B0FBF2F10901A2
:103A60000B096FF018056B4300EB8300A3891D045D
:103A70004FF0320307D503EBC000B0FBF2F000F0CB
:103A80000700084306E003EB0010B0FBF2F000F083
:103A90000F00084320817FBD4FF4165101600021C3
:103AA0008180C18001810C2242818181704710B5E3
:103AB000028A22F470630A884C8822438C88C98861
:103AC0000C4322431A43028210BD00210180418031
:103AD0008180C1807047002904D0818941F4005160
:103AE00081817047818921F4005181817047028B67
:103AF00002F47F420283028B0A430283704700294B
:103B000004D0818941F40041818170478189C1F3EA
:103B10000E0181817047002904D0818A41F400613F
:103B200081827047818A21F4006181827047C1F3EC
:103B30000801818070478088C0F308007047028ABE
:103B400022F00F020282028A0A4302827047002991
:103B500004D0818941F0020181817047818921F07F
:103B6000020181817047828922F400628281828908
:103B70000A4382817047028A22F020020282028A6E
:103B80000A4302827047002904D0018A41F480412F
:103B900001827047018A21F4804101827047818946
:103BA00041F0010181817047002904D0818A41F0F0
:103BB000080181827047818A21F008018182704763
:103BC000028BD2B20283028B42EA01210183704749
:103BD000002904D0818A41F0200181827047818AC6
:103BE00021F0200181827047002904D0818A41F0B0
:103BF000100181827047818A21F010018182704713
:103C0000828A22F004028282828A0A438282704778
:103C1000002904D0818A41F0020181827047818AA3
:103C200021F0020181827047002A03D0828A0A4370
:103C300082827047828A8A438282704710B540F63A
:103C40006A13C1F3421301F01F040121A140012BAB
:103C500007D0022B07D014303AB102680A43026041
:103C600010BD0C30F8E71030F6E702688A430260B6
:103C700010BD0246002012880A4200D00120704781
:103C80008A05C9430180704770B5002440F66A1266
:103C9000C1F3421301F01F05012606FA05F2012BBC
:103CA0000CD0022B0DD0838A1340090A8E40008865
:103CB00030400BB100B10124204670BD8389134010
:103CC000F3E7038A1340F0E740F66A120A0A01217B
:103CD0009140C943018070470010014000440040FA
:103CE00000480040004C00400050004000140140DB
:103CF00000780040007C004001B581B00198009040
:103D000002E00098401E009000980028F9D10CBDF8
:103D100010B501214C062046FEF797FF2046BDE86E
:103D200010400021FEF791BF012101600021416098
:103D30008160C16001614FF4804242618161C16173
:103D4000D210026241628162C16201634163816398
:103D5000C16340220264202242648164C16401651F
:103D600041658165C1650166802242668166C166E2
:103D7000016741678167C167D204C0F88020521093
:103D8000C0F88420C0F888101311C0F88C30C0F837
:103D90009010C0F89410C0F89810C0F89C10C0F8AB
:103DA000A010C0F8A4205212C0F8A8209201C0F8B8
:103DB000AC205212C0F8B020C0F8B410C0F8B8104F
:103DC000704738B500230093F84B1C6904F01C05BC
:103DD0004FF6FF7404EAC0242C434FF4F86000EA65
:103DE0008110204340F0020040F001005A61186148
:103DF000EF490098401C00901869C00702D0009855
:103E00008842F6D30098884201D1002038BD0120B5
:103E100038BD18B500220092E44A136903F01C046F
:103E20004FF6FF7303EAC02323434FF4F86000EA20
:103E30008110184320F0020040F001001061DC49BD
:103E40000098401C00901069C00702D0009888427A
:103E5000F6D30098884201D1002018BD506980B285
:103E600018BD2DE9F04186B0044688460027059725
:103E70000097CE4E306920F01C0501A8FEF710FE19
:103E80000298CC49CC4A0144914202D245F008053F
:103E900016E0CA49CA4A0144914202D245F00C05D3
:103EA0000EE0C849C84A0144914209D3C7490844B1
:103EB000C749884202D245F0040501E045F01005EB
:103EC00035614FF4004200214046FFF77AFFF0B120
:103ED000C048FFF711FF206888B30098401C00908D
:103EE00001214046FFF795FF00974FF480520021D3
:103EF0004046FFF766FF60B10098401C0090AC4957
:103F00000098884207D1002006B0BDE8F08100206B
:103F1000FAE70020F8E700971F214046FFF779FFF6
:103F2000C10603D54FF40061216200E0276240071B
:103F300001D5676115E04FF48040606111E0FFE753
:103F4000206A0021C0F3CF026069C0F34F00024332
:103F50004046FFF736FF00287CD06FF07F40FFF728
:103F6000CBFE31689C480140D4E901021043E2686D
:103F700054F8103F1A43104362681043A26810437C
:103F8000E26810432269104362691043A26910433A
:103F9000E2691043226A1043626A143410430843F2
:103FA000306054F8140F61680843D4E902121143D9
:103FB00008432169084361690843A1690843E1692D
:103FC00008437060206AB060606AF060B1694FF6C3
:103FD00041700140D4E90B021043238D626B42EA29
:103FE00003421043A26B1043E26B10430843B061DD
:103FF000D4E910010843F0617848826978490A40A1
:10400000D4E912131943D4E914352B431943A36D92
:104010001943E36D1943236E1943636E1943A36E6D
:10402000194311438161D4E91B121143626F54F8A3
:10403000783F1A431143626841EA8201A268114342
:1040400041F400010160016841F08001016001203C
:104050005AE7FFE7002057E76049002804D0886945
:1040600040F0020088617047886920F00200886192
:1040700070475A49002804D0886940F4005088618C
:104080007047886920F400508861704747490028CC
:1040900004D0086840F0040008607047086820F009
:1040A0000400086070474D48816941F480118161C6
:1040B00070473E49002804D0086840F008000860B6
:1040C0007047086820F008000860704700B50120BC
:1040D000FFF7EFFFFFF7E7FF0120FFF7D7FF012012
:1040E000FFF7C7FF01205DF804EBB5E700202F497B
:1040F0008969C90700D0012070472C48816941F0C7
:104100000101816170472949002804D0886940F085
:10411000010088617047886920F00100886170475C
:1041200001460020214A926B0A4200D001207047CC
:10413000014600201D4A926B0A4200D001207047C0
:104140001A4A002903D0D16B8143D1637047D16BE8
:104150000143D16370470A794B7942EA0322134B3A
:10416000184402640A78CB7842EA03628B78497873
:104170001B0443EA01210A43426470470B4A02448C
:10418000106C030A4B710871506C020ECA70020C5D
:104190008A70020A4A7008707047044A0029104465
:1041A00020D0016C41F00041016470470080024062
:1041B000FFFF040000D3CEFEC0E1E40040F1E9FDC2
:1041C00040787D0100796CFC005A6202001F0AFAF7
:1041D00080F0FA02FFFF0F000F8120FF00900240E5
:1041E000233FDEF8016C21F000410164DDE7F84A6D
:1041F0000829104404D0016C41F080410164D4E7E7
:10420000016C21F080410164CFE7F14A1044026C57
:1042100022F07C520264026C0A430264C5E71EB5B8
:10422000002101910291EB4B59680A68C2F30D42DB
:10423000121F00929A689468012C03D91268926840
:10424000019201E08A6801920291C96859609DE873
:104250000E000EC01EBD1FB50021019102910391F9
:104260000091DC4B99681AE0009C641C009414686F
:10427000A40509D51468E40506D40A6001228A6001
:104280005A68D2685A600AE01468E40512D41468C7
:10429000A4050FD48C68641C8C60D2685A605A687C
:1042A0001468002C02DB009C052CDDD301A90EC98B
:1042B0000EC01FBD5C684C608C68641C8C608C6890
:1042C000012C00D10A605A681468C4F30D44241FFD
:1042D00001948C68012C03D909688968029101E076
:1042E000916802910392D168596001A90EC90EC06C
:1042F0001FBDF0B50023B74D29680A68002A01DA0E
:104300000020F0BD40F2F456B04208D9B0FBF6F2FE
:10431000B0FBF6F406FB140414B1521C00E00122B9
:10432000012A2CD10A6842F040520A60C0F30C0006
:104330004860086840F000400860C868286021E0D4
:1043400023B92C68276847F0805727604E60541EB9
:10435000A3420ED10C6844F000540C60C2F1010479
:10436000C4EBC41404EB440400EB8404C4F30C0455
:104370004C600C6844F000440C60C9685B1C9342BC
:10438000DED3296094484169490703D5042141617E
:10439000002141600120F0BD2DE9F04100238D4F47
:1043A00078604FF0004C44F2F458561E14E000EBD5
:1043B0004314C4F800C0C4F80480C3EBC31505EB74
:1043C000450501EB8505A560B34203D204F1200544
:1043D000E56000E0E0605B1C9342E8D37E49C86082
:1043E0007E48B86091E57B4A506803681146002B0F
:1043F000896808DB0368DB0505D548608868401CD0
:1044000088600120D1E60368002B0EDB03689B0562
:104410000BD50368DB0508D4086000204860012044
:1044200088605068C06850600DE00368002B0ADBAC
:1044300003689B0507D40368DB0504D48B685B1C09
:104440008B60C06850600020AFE6F0B50023614C7F
:1044500020604FF48017561E11E000EB43142760D4
:10446000C3EBC31505EB450501EB8505A560B3421C
:1044700003D204F12005E56000E0E0605B1C93429C
:10448000EBD355490861F0BD0246002012680A428C
:1044900000D0012089E60068C0F3C30085E601680A
:1044A00041F00041016080E6002904D0016841F03C
:1044B0008041016079E6016821F08041016074E685
:1044C00002680A43026070E602680A4302606CE612
:1044D000002904D0016821F00061016065E60168EF
:1044E00041F00061016060E6002904D0016841F4F8
:1044F0008011016059E6016821F48011016054E6E1
:10450000002904D0016821F0806101604DE6016856
:1045100041F08061016048E6436841EA02410B4393
:10452000436042E60246002012680A4200D00120A1
:104530003BE60246002012690A4200D0012034E620
:10454000016841F0004101602FE60068C0F30D40B2
:104550002BE64268002903D022F00041416024E6A6
:1045600042F00041416020E64068002902D0C0F3DB
:104570000C401AE6C0F30C0017E600B500210268F3
:10458000002A08DB0268120405D40268D20502D5AD
:10459000FFF7DBFF0146084600BD0F49002804D0A5
:1045A000086840F080000860FFE5086820F080009F
:1045B0000860FAE50848016841F001010160F4E58E
:1045C000002005490968C90700D00120EDE5000079
:1045D000008002404400002000900240801700202C
:1045E000014600209E4A52690A4200D00120DCE5C3
:1045F0009B494861D9E59A4A002903D0D169014312
:10460000D161D2E5D1698143D161CEE50146002077
:10461000934A52690A4200D00120C6E59049486198
:10462000C3E58F48406900F00100BEE58C48406951
:1046300000F04000B9E5002089498969C90200D528
:104640000120B2E501460020854A126A0A4200D0E4
:104650000120AAE58248006AC0F34A40A5E58048E7
:10466000006A80B2A1E57E48806C9EE57C48C06C03
:104670009BE57B48006D98E57948406D95E5784964
:104680000020486091E57649002088608DE57449F6
:1046900048628AE530B505460C4600212846FFF7FA
:1046A000B8FB14B140F4804201E020F480420021C4
:1046B0002846FFF786FB08B1012030BD002030BD41
:1046C0006848C16A41F00041C1626EE50021654A57
:1046D00050F821309362491C0829F9D365E56149F6
:1046E000002804D0C86A40F40070C8625DE5C86A5A
:1046F00020F40070C86258E501460020594AD26A89
:104700000A4200D0012050E55649002804D0C86A6A
:1047100040F00400C86248E5C86A20F00400C8629E
:1047200043E55049002804D0C86A40F00200C8623E
:104730003BE5C86A20F00200C86236E54949002816
:1047400004D0C86A40F00100C8622EE5C86A20F0B3
:104750000100C86229E54448016841F03001016068
:1047600023E54148016821F020010160016841F022
:104770001001016019E53B49002806D0D1F800017D
:1047800040F00800C1F800010FE5D1F8000120F069
:104790000800C1F8000108E53249002806D0D1F828
:1047A000000140F00400C1F80001FEE4D1F800016E
:1047B00020F00400C1F80001F7E42A49002806D0DF
:1047C000D1F8000120F00200C1F80001EDE4D1F8B9
:1047D000000140F00200C1F80001E6E4224801684F
:1047E00041F001010160E0E41E4AC3000ED520F053
:1047F000805029B1D2F80C118143C2F80C11D4E4D5
:10480000D2F80C110143C2F80C11CEE429B1D2F850
:1048100010118143C2F81011C7E4D2F810110143FE
:10482000C2F81011C1E400210E4AC30009D5D2F824
:10483000043103420ED0D2F80C2102420AD10121E8
:1048400008E0D2F80831034204D0D2F80C21024229
:1048500000D101210846A8E402494058A5E400001F
:1048600000900240008002400081024010B501210A
:10487000CC022046FEF719FA2046BDE81040002180
:10488000FEF713BA30B5644B196847F6FF629143DF
:10489000027D8468C568224344682C43224304682F
:1048A0000069224302430A431A6030BD00210175AA
:1048B000016041608160C1600161704757490860D3
:1048C00070475549091F086070475348001F00682A
:1048D00000F00300704710B54F4A0168121D1160C7
:1048E000141D21686FF30A01D0E901231A43D0E9AE
:1048F000033003431A430A43226010BD00210160C4
:1049000041608160C1600161704743480C300068BC
:10491000C0B2704708B54049103108440090009873
:10492000006808BD10B53C4A016820321160121DB4
:1049300041681160141D216821F0F701D0E90223BC
:104940001A43D0E9043003431A430A43226010BDDE
:104950004FF0FF310160002141608160C160016161
:10496000416170472C482C30006870472A487C30E1
:104970000068704728497C310860704726484430F9
:10498000006870472649086070472549091D08607E
:104990007047234908310860704721490C3108608D
:1049A00070472049086070471E49091D086070471C
:1049B000012181431B4808300160704719490C31BF
:1049C000086070471649143908607047124A383237
:1049D000002903D0116801431160704711688143B9
:1049E00011607047014600200B4A303212680A42BB
:1049F00000D00120704708493431086070470146F3
:104A00000020054A303212680A4200D00120704767
:104A10000149343108607047042C0140A0802542D0
:104A2000A0852542AC8125422DE9F043016821F0A3
:104A3000010101600021016041608160C16001618C
:104A400021214161C149C14A10394FF03D089042CE
:104A500003D1C1F80880BDE8F083BC4A4FF4746507
:104A60001832904201D18D60F5E7B84A4FF47416C0
:104A70003032904201D18E60EDE7B44A4FF0746756
:104A80004832904201D18F60E5E7B04BB04A6033C5
:104A9000984201D1CA60DEE7AC4CAE4B7834A042FC
:104AA00001D1CB60D7E7DFF8A4C2AB4C0CF1900C7E
:104AB000604501D1CC60CEE7DFF890924FF03D5CCD
:104AC00009F1A809484502D1C1F80CC0C3E7A349C0
:104AD000DFF888920839484502D1C1F80080BAE76A
:104AE000DFF8788208F11808404501D10D60B2E77F
:104AF0009A4D3035A84201D10E60ACE7974D48354C
:104B0000A84201D10F60A6E7944D94496035091F72
:104B1000A84201D10A609EE7904A7832904201D1C2
:104B20000B6098E78D4A9032904201D10C6092E779
:104B30008A4AA83290428ED1C1F800C08BE730B5C6
:104B40000368874A1340CC680A682243D1E90545C7
:104B50002C432243CC6922430C6A22434C6A2243F1
:104B60008C6A22434C6B22438C6B22431A430260B3
:104B7000426922F00703D1E90B2422431A43426120
:104B80000A6942604A6882608968C16030BD00215C
:104B9000016041608160C160016141618161C16109
:104BA000016241628162C162016341638163704756
:104BB000002904D0016841F00101016070470168DB
:104BC00021F0010101607047002904D0016841F41F
:104BD000004101607047016821F4004101607047A5
:104BE000002904D0016841F020010160704701688C
:104BF00021F020010160704741607047406880B239
:104C00007047002A04D0026842F40022026003E0E8
:104C1000026822F40022026001617047002904D07A
:104C2000016841F4802101607047016821F480210E
:104C300001607047002A01D001617047C160704770
:104C4000014600200968090300D50120704701468C
:104C500000200968C90700D001207047406900F0B2
:104C600038007047024600203C4B9A4202D2374A35
:104C7000103A01E0394A103A8B0001D5526800E041
:104C80001268384B1A400A4200D001207047334A5C
:104C9000904202D22D48103801E030481038314A95
:104CA0008B0001EA020101D5C16070478160704745
:104CB0000B0609D522B1436943F08003436103E049
:104CC000436923F080034361802905D001F01E0170
:104CD0001AB102680A430260704702688A430260A0
:104CE000704730B500241D4A904202D2174A103A4C
:104CF00001E01A4A103A1C4B194205D01E2303EA60
:104D0000D12503682B4002E0406900F08003880051
:104D100001D5506800E01068124A1040084201D0E6
:104D200003B10124204630BD0C4A904202D207480C
:104D3000103801E0094810380A4A8B0001EA0201E4
:104D400001D5C1607047816070470000106002406B
:104D50003D000020400F002000003D201064024074
:104D60003F801CF07D0F7D0F3C0F3C0F10B50446BB
:104D70006FF00400FDF771FC2849E008087000EBB3
:104D80004002C2EBC0104FF6FF7202EAC00048803A
:104D900010BD2249097848434FF0E02148610023C3
:104DA0008B61086940F0010008610869C20701D001
:104DB000C003FAD5086920F0010008618B617047D3
:104DC0001649498848434FF0E021486100238B6130
:104DD000086940F0010008610869C20701D0C003FA
:104DE000FAD5086920F0010008618B6170470B4912
:104DF000498848434FF0E021486100238B610869EE
:104E000040F0010008610869C20701D0C003FAD56B
:104E1000086920F0010008618B6170475000002094
:104E2000704781490A885206FCD5C2B28A80704711
:104E3000F0B587B0054601210846FDF7CAFE0121FD
:104E40001020FDF7F6FE794F072209213846FDF7BD
:104E500025FD07220A213846FDF720FD4FF4C060EA
:104E6000059002208DF818008DF8190000248DF8A7
:104E70001A4001268DF81B6005A93846FDF796FCFF
:104E80000195ADF80840ADF80A40ADF80C40ADF81A
:104E900010400C20ADF80E00634C01A92046FEF72F
:104EA000A1FD01212046FEF716FE40212046FEF717
:104EB000E7FE012240F225512046FEF7BFFE2520E5
:104EC0008DF8000003208DF801008DF802008DF8A8
:104ED00003606846FDF77DFB07B0F0BD70B5524C2E
:104EE00040F225512046FEF7CFFE00280ED0204686
:104EF000FEF721FEC1B24E4A1088030406D44404D2
:104F00004FF0000307D50A2901D0138070BD40F48B
:104F10000040108070BD0D290AD0464DC0F30D042D
:104F20002955401C80B21080C728F3D9138070BD6A
:104F300040F48040108070BD2DE9F04188B080467B
:104F400001210420FDF745FE01212020FDF771FE1F
:104F50000820069001258DF81C5002268DF81D6052
:104F600000248DF81E408DF81F50334F06A9384697
:104F7000FDF71CFC082206213846FDF78FFC0822AD
:104F800007213846FDF78AFCC02006908DF81C608A
:104F90008DF81D608DF81E408DF81F5006A938460B
:104FA000FDF704FCCDF80880ADF80C40ADF80E40DC
:104FB000ADF81040ADF814400C20ADF812001F4CB5
:104FC00002A92046FEF70EFD01212046FEF783FDD3
:104FD00040212046FEF754FE012240F22551204692
:104FE000FEF72CFE47208DF8040003208DF8050005
:104FF0008DF806608DF8075001A8FDF7EAFA08B0B1
:10500000BDE8F08170B50D4D40F22554214628468B
:10501000FEF73AFE10B12846FEF78DFD21462846E0
:10502000BDE87040FEF750BE001001400000024095
:10503000540000208C17002000080240001401409A
:10504000F0B58DB004461E230CAA04A9204600F03A
:105050000FFE019010B101200DB0F0BD9DF83000A1
:10506000271800260C963B4C9DF8300054F8201071
:1050700004A800F083FD30B19DF83000401CC1B29F
:105080000C910729F0D39DF830000425324C0728F5
:105090005CD2DFE800F004043B575E5D5C002FA0AB
:1050A00012F060FB2EA012F05DFB3DA012F05AFB47
:1050B0004BA012F057FB5AA012F054FB68A012F05C
:1050C00051FB77A012F04EFB83A012F04BFB89A09E
:1050D00012F048FB8DA012F045FB92A012F042FBAB
:1050E00096A012F03FFB9CA012F03CFBA1A012F096
:1050F00039FBAEA012F036FBBAA012F033FBC6A00B
:1051000012F030FBD1A012F02DFB76E213A012F0CA
:1051100029FBDEA012F026FB0C960AE0216805EBC5
:10512000C0000958E9A012F01DFB9DF83000401C9A
:105130000C90217D9DF830008142EFD807A012F03D
:1051400011FB5AE205A012F00DFBC3E157E230E279
:105150000BE2E4E15C000020A80000200D0A000042
:105160002D2D2D2D2D2D2D2D2D2D2D2D2D2D2D2D6F
:105170002D2D2D2D2D2D2D2D55534D415254205675
:10518000332E312D2D2D2D2D2D2D2D2D2D2D2D2D44
:105190002D2D2D2D2D2D2D2D2D2D2D200D0A0000E9
:1051A0002020202055534D415254CAC7D3C9414CE9
:1051B00049454E54454BBFAAB7A2B5C4D2BBB8F6B9
:1051C000C1E9C7C9B5C4B4AEBFDAB5F7CAD4BBA587
:1051D000BDBBD7E9BCFE2CCDA8B9FD200D0A00004F
:1051E000CBFC2CC4E3BFC9D2D4CDA8B9FDB4AEBFAB
:1051F000DAD6FACAD6B5F7D3C3B3CCD0F2C0EFC370
:10520000E6B5C4C8CEBACEBAAFCAFD2CB2A2D6B4E7
:10521000D0D02ED2F2B4CB2CC4E3BFC90D0A00000B
:10522000D2D4CBE6D2E2B8FCB8C4BAAFCAFDB5C49A
:10523000CAE4C8EBB2CECAFD28D6A7B3D6CAFDD7FA
:10524000D62831302F3136BDF8D6C629A1A2D7D6FF
:10525000B7FBB4AEA1A2BAAFCAFDC8EB0D0A0000FD
:10526000BFDAB5D8D6B7B5C8D7F7CEAAB2CECAFD81
:10527000292CB5A5B8F6BAAFCAFDD7EEB6E0D6A7C9
:10528000B3D63130B8F6CAE4C8EBB2CECAFD2CB200
:10529000A2D6A7B3D6BAAFCAFDB7B5200D0A000093
:1052A000BBD8D6B5CFD4CABE2ED0C2D4F6B2CECAE1
:1052B000FDCFD4CABEBDF8D6C6C9E8D6C3B9A6C408
:1052C000DC2CD0C2D4F6BDF8D6C6D7AABBBBB9A6D3
:1052D000C4DC2E0D0A000000BCBCCAF5D6A7B3D6AC
:1052E0003A7777772E6F70656E6564762E636F6D93
:1052F0000D0A000055534D415254D3D037B8F6CF64
:10530000B5CDB3C3FCC1EE3A0D0A00003F3A2020F0
:1053100020202020BBF1C8A1B0EFD6FAD0C5CFA283
:105320000D0A000068656C703A202020BBF1C8A10E
:10533000B0EFD6FAD0C5CFA20D0A00006C69737425
:105340003A202020BFC9D3C3B5C4BAAFCAFDC1D06B
:10535000B1ED0D0A0A00000069643A2020202020E7
:10536000BFC9D3C3BAAFCAFDB5C44944C1D0B1EDBA
:105370000D0A0A006865783A20202020B2CECAFDC6
:105380003136BDF8D6C6CFD4CABE2CBAF3B8FABFF0
:10539000D5B8F12BCAFDD7D6BCB4D6B4D0D0BDF8A1
:1053A000D6C6D7AABBBB0D0A0A0000006465633AE3
:1053B00020202020B2CECAFD3130BDF8D6C6CFD4D1
:1053C000CABE2CBAF3B8FABFD5B8F12BCAFDD7D6EE
:1053D000BCB4D6B4D0D0BDF8D6C6D7AABBBB0D0AD4
:1053E0000A00000072756E74696D653A312CBFAAAF
:1053F000C6F4BAAFCAFDD4CBD0D0BCC6CAB13B301C
:105400002CB9D8B1D5BAAFCAFDD4CBD0D0BCC6CA9E
:10541000B13B0D0A0A000000C7EBB0B4D5D5B3CC40
:10542000D0F2B1E0D0B4B8F1CABDCAE4C8EBBAAFAB
:10543000CAFDC3FBBCB0B2CECAFDB2A2D2D4BBD8A7
:10544000B3B5BCFCBDE1CAF82E0D0A002D2D2D2DE3
:105450002D2D2D2D2D2D2D2D2D2D2D2D2D2D2D2D7C
:105460002D2D2D2D2D2D414C49454E54454B2D2D87
:105470002D2D2D2D2D2D2D2D2D2D2D2D2D2D2D2D5C
:105480002D2D2D2D2D2D2D200D0A00002D2D2D2DF6
:105490002D2D2D2D2D2D2D2D2D2D2D2D2D2D2D2D3C
:1054A0002D2D2D2D2DBAAFCAFDC7E5B5A52D2D2D5E
:1054B0002D2D2D2D2D2D2D2D2D2D2D2D2D2D2D2D1C
:1054C0002D2D2D2D2D2D2D2D200D0A0025730D0A8E
:1054D00000000000F3A012F045F90C9615E02168D9
:1054E00005EBC00002AB085803AA04A900F0E1FBD9
:1054F0009DF83010206850F8312004A9F9A012F06E
:1055000031F99DF83000401C0C90217D9DF8300051
:105510008142E4D8AFF2BC3012F024F96DE0AFF272
:10552000C43012F01FF90CAA04A9384600F077FC29
:105530009DF8300008B102208EE501A904A800F012
:1055400044FB0C9018B1042806D0022084E5EAA0A0
:10555000019912F007F904E0EAA012F003F9012022
:10556000E075E7A012F0FEF847E0E5A012F0FAF8C7
:105570000CAA04A9384600F052FC9DF8300008B18E
:10558000022069E501A904A800F01FFB0C9018B1E6
:10559000042806D002205FE5DFA0019912F0E2F8AE
:1055A00003E0E0A012F0DEF8E675D5A012F0DAF81C
:1055B00023E0D3A012F0D6F80CAA04A9384600F0D4
:1055C0002EFC9DF8300008B1022045E501A904A891
:1055D00000F0FBFA0C9008B102203DE50198C0B242
:1055E00084F8EC0018B1D4A012F0BCF802E0D9A005
:1055F00012F0B8F8C2A012F0B5F800202CE5012096
:105600002AE5DB48018821F001010180D8494FF6E5
:10561000FF701C310860D649002014310860D5495C
:10562000C1F8F0007047D2480088D249C00706D0C0
:10563000D1F8F0004FF6FF721044C1F8F000CC4AE8
:1056400051F8F00F1432126810440860704710B51A
:10565000C74C2088C0070BD0C64800698047C449A2
:10566000002014310860C2494FF47A701C31086080
:10567000208820F00100208010BD08B5BE4A1368C4
:1056800043F004031360BA4A1C321060101F0180FB
:10569000B748001F018841F001010180B44810386B
:1056A000018841F0010101801E208DF800000320D7
:1056B0008DF801008DF8020001208DF80300684686
:1056C000FCF787FF08BD10B500EBC00101EB00102F
:1056D0004FF0FF3101EB800081B24FF47A70FFF799
:1056E000CCFFA4490120C87510BD70B594B0064622
:1056F00012AB11AA08A9304600F0DBFA002822D12B
:1057000013909C4C042513E0216805EBC00012ABFC
:10571000085810AA694600F0CCFA002813D108A94D
:10572000684600F02BFA80B19DF84C00401C1390A5
:10573000217D9DF84C008142E6D8207D9DF84C10DB
:1057400088420ED1042014B070BD9DF840009DF831
:105750004410884201D90220F5E79DF84C00A0755D
:10576000EBE713A9304600F0B7FB0028EBD19DF81A
:105770004C0060750020E6E72DE9F0419AB07D4EBF
:10578000B57D307DA84271D90421306801EBC50197
:1057900006AB405807AA08A900F08BFA08A977A021
:1057A00011F0E0FF00240DF1400832E0308B0121C0
:1057B000A140084217D0222172A011F0D3FF204649
:1057C00000F07BFB811924316FA011F0CBFF222167
:1057D0006CA011F0C7FF204600F06FFB304424306E
:1057E00048F824000BE0204600F067FB3044416A93
:1057F00048F82410F07D00B364A011F0B3FF9DF8C9
:105800001C00401E844202D062A011F0ABFF641C59
:10581000E4B29DF81C008442C8D35FA011F0A2FF3F
:10582000FFF7EFFE707D0B2810D2DFE800F00A10C2
:1058300017202830B9C5D3E3F60058A011F092FF25
:10584000DDE7306850F8350080470746F8E03068FB
:1058500050F83510109888470746F1E0306850F846
:105860003520DDE9100190470746E9E001E13068A5
:1058700050F8353010A807C898470746E0E0306870
:1058800050F8354010A80FC8A0470746D8E0149834
:105890000090306850F8354010A80FC8A047074660
:1058A000CEE000002D2D2D2D2D2D2D2D2D2D2D2D2E
:1058B0002D2D2D2D2D2D2D2D2D2D2D2D2DBAAFCA6C
:1058C000FD204944202D2D2D2D2D2D2D2D2D2D2D1F
:1058D0002D2D2D2D2D2D2D2D2D2D2D2D2D2D2D2DF8
:1058E000200D0A0025732069642069733A0D0A307F
:1058F00058253038580D0A004845583A3058255830
:105900000D0A00003136BDF8D6C6B2CECAFDCFD4DE
:10591000CABE210D0A0000004445433A256C750DAE
:105920000A0000003130BDF8D6C6B2CECAFDCFD4D1
:10593000CABE210D0A00000052756E2054696D65C3
:105940002043616C63756C6174696F6E204F4E0DFE
:105950000A00000052756E2054696D652043616C29
:1059600063756C6174696F6E204F46460D0A0000C6
:1059700010080040A8000020403802400D0A25739E
:1059800028000000256300002573000030582558CA
:10599000000000002C00000029000000256C7500AC
:1059A000DDE91401CDE90001306850F8354010A858
:1059B0000FC8A047074643E0DDE915211498CDE95B
:1059C00001210090306850F8354010A80FC8A0475A
:1059D000074635E0DDE91610DDE91423CDE90210B4
:1059E000CDE90023306850F8354010A80FC8A04713
:1059F000074625E0DDE91523DDE91710CDE9012390
:105A0000CDE9031014980090306850F8354010A884
:105A10000FC8A047074613E0FFE7DDE91810CDE9FE
:105A20000410DDE91623DDE91401CDE90223CDE9F7
:105A30000001306850F8354010A80FC8A04707464D
:105A4000FFF7F1FD9DF81800012815D02CA011F0EA
:105A500089FE96F8EC0000280BD0D6F8F0000A2159
:105A6000B0FBF1F201FB1202B0FBF1F125A011F045
:105A700079FE1AB0BDE8F081F07D20B1394629A049
:105A800011F070FEE5E7394629A011F06BFEE0E762
:105A90002DE9F041284D28880104EBD5C0B22749F3
:105AA00000260E54264F2548B968884704467CB125
:105AB0002248FFF7C5FA012800D00446D4B1012CD2
:105AC00009D0022C0BD0032C0DD0042C12D10EE0E7
:105AD000F86880470EE01BA011F044FE0AE01CA00D
